S01A000049676E6974696F6E436F6E74726F6C6C65722E73726563A5
S3150800000000000220391D0008851C00088B1C00080A
S31508000010911C0008971C00089D1C000800000000A1
S31508000020000000000000000000000000A31C0008FB
S31508000030B11C000800000000BF1C0008CD1C000809
S31508000040891D0008891D0008891D0008891D0008EA
S31508000050891D0008891D0008891D0008891D0008DA
S31508000060891D0008891D0008891D0008891D0008CA
S31508000070891D0008891D0008891D0008891D0008BA
S31508000080891D0008891D0008891D0008891D0008AA
S31508000090891D0008891D0008891D0008891D00089A
S315080000A0891D0008891D0008891D0008891D00088A
S315080000B0D91C0008891D0008891D0008891D00082B
S315080000C0891D0008891D0008891D0008891D00086A
S315080000D0891D0008891D0008891D0008891D00085A
S315080000E0891D0008891D0008891D0008891D00084A
S315080000F0891D0008891D0008891D0008891D00083A
S31508000100891D0008891D0008891D0008891D000829
S31508000110891D0008891D0008891D0008891D000819
S31508000120891D0008891D0008891D0008891D000809
S31508000130891D0008891D0008891D0008891D0008F9
S31508000140891D0008891D0008891D0008891D0008E9
S31508000150891D0008891D0008891D0008891D0008D9
S31508000160891D0008891D0008891D0008891D0008C9
S31508000170891D0008891D0008891D00080000000067
S30D08000180891D0008891D00080D
S3150800018810B5054C237833B9044B13B10448AFF3BB
S3150800019800800123237010BD7000002000000000B5
S315080001A83445000808B5034B1BB103490348AFF3A8
S315080001B8008008BD000000007400002034450008CF
S315080001C881F0004102E000BF83F0004330B54FEAF2
S315080001D841044FEA430594EA050F08BF90EA020F5F
S315080001E81FBF54EA000C55EA020C7FEA645C7FEAF2
S315080001F8655C00F0E2804FEA5454D4EB5555B8BF15
S315080002086D420CDD2C4480EA020281EA030382EA85
S31508000218000083EA010180EA020281EA0303362D17
S3150800022888BF30BD11F0004F4FEA01314FF4801CEA
S315080002384CEA113102D0404261EB410113F0004FFC
S315080002484FEA03334CEA133302D0524263EB4303B3
S3150800025894EA050F00F0A780A4F10104D5F1200E51
S315080002680DDB02FA0EFC22FA05F2801841F10001AC
S3150800027803FA0EF2801843FA05F359410EE0A5F180
S3150800028820050EF1200E012A03FA0EFC28BF4CF0B1
S31508000298020C43FA05F3C01851EBE37101F0004567
S315080002A807D54FF0000EDCF1000C7EEB00006EEB74
S315080002B80101B1F5801F1BD3B1F5001F0CD34908FE
S315080002C85FEA30004FEA3C0C04F101044FEA445255
S315080002D812F5800F80F09A80BCF1004F08BF5FEADC
S315080002E8500C50F1000041EB045141EA050130BDBC
S315080002F85FEA4C0C404141EB0101013C28BFB1F5CE
S31508000308801FE9D291F0000F04BF01460020B1FA18
S3150800031881F308BF2033A3F10B03B3F120020CDAEB
S315080003280C3208DD02F1140CC2F10C0201FA0CF0C9
S3150800033821FA02F10CE002F11402D8BFC2F1200C2E
S3150800034801FA02F120FA0CFCDCBF41EA0C019040E4
S31508000358E41AA2BF01EB0451294330BD6FEA04042D
S315080003681F3C1CDA0C340EDC04F11404C4F1200218
S3150800037820FA04F001FA02F340EA030021FA04F32A
S3150800038845EA030130BDC4F10C04C4F1200220FA81
S3150800039802F001FA04F340EA0300294630BD21FABF
S315080003A804F0294630BD94F0000F83F4801306BF85
S315080003B881F480110134013D4EE77FEA645C18BF79
S315080003C87FEA655C29D094EA050F08BF90EA020F10
S315080003D805D054EA000C04BF1946104630BD91EA08
S315080003E8030F1EBF0021002030BD5FEA545C05D10B
S315080003F84000494128BF41F0004130BD14F580044A
S315080004083CBF01F5801130BD01F0004545F0FE41BD
S3150800041841F470014FF0000030BD7FEA645C1ABFF2
S31508000428194610467FEA655C1CBF0B46024650EA29
S31508000438013406BF52EA033591EA030F41F4002155
S3150800044830BD00BF90F0000F04BF0021704730B5DB
S315080004584FF4806404F132044FF000054FF00001B0
S3150800046850E700BF90F0000F04BF0021704730B571
S315080004784FF4806404F1320410F0004548BF404246
S315080004884FF000013EE700BF42004FEAE2014FEA9B
S3150800049831014FEA02701FBF12F07F4393F07F4F76
S315080004A881F06051704732F07F4208BF704793F079
S315080004B87F4F04BF41F40021704730B54FF460748C
S315080004C801F0004521F000411CE700BF50EA01028F
S315080004D808BF704730B54FF000050AE050EA010238
S315080004E808BF704730B511F0004502D5404261EBA8
S315080004F841014FF4806404F132045FEA915C3FF4E9
S31508000508D8AE4FF003025FEADC0C18BF03325FEA85
S31508000518DC0C18BF033202EBDC02C2F1200300FA36
S3150800052803FC20FA02F001FA03FE40EA0E0021FA5B
S3150800053802F11444BDE600BF70B54FF0FF0C4CF449
S31508000548E06C1CEA11541DBF1CEA135594EA0C0FFB
S3150800055895EA0C0F00F0DEF82C4481EA030621EA36
S315080005684C5123EA4C5350EA013518BF52EA033571
S3150800057841F4801143F4801338D0A0FB02CE4FF023
S315080005880005E1FB02E506F00042E0FB03E54FF053
S315080005980006E1FB03569CF0000F18BF4EF0010E4B
S315080005A8A4F1FF04B6F5007F64F5407404D25FEA47
S315080005B84E0E6D4146EB060642EAC62141EA5551FA
S315080005C84FEAC52040EA5E504FEACE2EB4F1FD0C3C
S315080005D888BFBCF5E06F1ED8BEF1004F08BF5FEABA
S315080005E8500E50F1000041EB045170BD06F000466C
S315080005F846EA010140EA020081EA0301B4EB5C0419
S31508000608C2BFD4EB0C0541EA045170BD41F4801110
S315080006184FF0000E013C00F3AB8014F1360FDEBF35
S31508000628002001F0004170BDC4F10004203C35DA11
S315080006380C341BDC04F11404C4F1200500FA05F394
S3150800064820FA04F001FA05F240EA020001F0004235
S3150800065821F0004110EBD37021FA04F642EB0601AB
S315080006685EEA430E08BF20EAD37070BDC4F10C04D5
S31508000678C4F1200500FA04F320FA05F001FA04F299
S3150800068840EA020001F0004110EBD37041F1000185
S315080006985EEA430E08BF20EAD37070BDC4F1200590
S315080006A800FA05F24EEA020E20FA04F301FA05F2F8
S315080006B843EA020321FA04F001F0004121FA04F2A0
S315080006C820EA020000EBD3705EEA430E08BF20EA70
S315080006D8D37070BD94F0000F0FD101F000464000AA
S315080006E841EB010111F4801F08BF013CF7D041EA2C
S315080006F8060195F0000F18BF704703F00046520030
S3150800070843EB030313F4801F08BF013DF7D043EA00
S315080007180603704794EA0C0F0CEA135518BF95EAB6
S315080007280C0F0CD050EA410618BF52EA4306D1D13D
S3150800073881EA030101F000414FF0000070BD50EA5C
S31508000748410606BF1046194652EA430619D094EAE6
S315080007580C0F02D150EA013613D195EA0C0F05D1D0
S3150800076852EA03361CBF104619460AD181EA030124
S3150800077801F0004141F0FE4141F470014FF00000DC
S3150800078870BD41F0FE4141F4780170BD70B54FF077
S31508000798FF0C4CF4E06C1CEA11541DBF1CEA1355F7
S315080007A894EA0C0F95EA0C0F00F0A7F8A4EB0504D9
S315080007B881EA030E52EA03354FEA013100F08880D0
S315080007C84FEA03334FF0805545EA131343EA126399
S315080007D84FEA022245EA111545EA10654FEA00264E
S315080007E80EF000419D4208BF964244F1FD0404F507
S315080007F8407402D25B084FEA3202B61A65EB030563
S315080008085B084FEA32024FF480104FF4002CB6EB1F
S31508000818020E75EB030E22BFB61A754640EA0C009F
S315080008285B084FEA3202B6EB020E75EB030E22BFDF
S31508000838B61A754640EA5C005B084FEA3202B6EB20
S31508000848020E75EB030E22BFB61A754640EA9C00DF
S315080008585B084FEA3202B6EB020E75EB030E22BFAF
S31508000868B61A754640EADC0055EA060E18D04FEA6D
S31508000878051545EA16754FEA06164FEAC30343EA0D
S3150800088852734FEAC2025FEA1C1CC0D111F4801FDA
S315080008980BD141EA00014FF000004FF0004CB6E7D3
S315080008A811F4801F04BF01430020B4F1FD0C88BF72
S315080008B8BCF5E06F3FF6AFAEB5EB030C04BFB6EB7D
S315080008C8020C5FEA500C50F1000041EB045170BD70
S315080008D80EF0004E4EEA113114EB5C04C2BFD4EB9D
S315080008E80C0541EA045170BD41F480114FF0000E21
S315080008F8013C90E645EA060E8DE60CEA135594EA9D
S315080009080C0F08BF95EA0C0F3FF43BAF94EA0C0F9F
S315080009180AD150EA01347FF434AF95EA0C0F7FF414
S3150800092825AF104619462CE795EA0C0F06D152EA68
S3150800093803353FF4FDAE1046194622E750EA41064C
S3150800094818BF52EA43067FF4C5AE50EA41047FF45D
S315080009580DAF52EA43057FF4EBAE12E74FF0FF3CC2
S3150800096806E000BF4FF0010C02E000BF4FF0010C93
S315080009784DF804CD4FEA410C7FEA6C5C4FEA430C0C
S3150800098818BF7FEA6C5C1BD001B050EA410C0CBF5B
S3150800099852EA430C91EA030F02BF90EA020F0020BD
S315080009A8704710F1000F91EA030F58BF994208BF24
S315080009B890422CBFD8176FEAE37040F001007047E1
S315080009C84FEA410C7FEA6C5C02D150EA013C07D138
S315080009D84FEA430C7FEA6C5CD6D152EA033CD3D083
S315080009E85DF8040B704700BF8446104662468C467D
S315080009F81946634600E000BF01B5FFF7B7FF0028B0
S31508000A0848BF10F1000F01BD4DF808EDFFF7F4FFD8
S31508000A180CBF012000205DF808FB00BF4DF808ED63
S31508000A28FFF7EAFF34BF012000205DF808FB00BF86
S31508000A384DF808EDFFF7E0FF94BF012000205DF8A8
S31508000A4808FB00BF4DF808EDFFF7CEFF94BF01205D
S31508000A5800205DF808FB00BF4DF808EDFFF7C4FF56
S31508000A6834BF012000205DF808FB00BF4FEA410C9F
S31508000A787FEA6C5C02D150EA013C0AD14FEA430C82
S31508000A887FEA6C5C02D152EA033C02D14FF00000BF
S31508000A9870474FF0010070474FEA410212F50012FD
S31508000AA815D211D56FF47873B3EB625212D94FEA9F
S31508000AB8C12343F0004343EA505311F0004F23FA89
S31508000AC802F018BF404270474FF00000704750EADE
S31508000AD8013005D111F0004008BF6FF0004070479B
S31508000AE84FF00000704700BF4A0011D212F50012F5
S31508000AF811D20DD56FF47873B3EB62520ED44FEA60
S31508000B08C12343F0004343EA505323FA02F07047DF
S31508000B184FF00000704750EA013002D14FF0FF301D
S31508000B2870474FF0000070474FEA4102B2F1E043C0
S31508000B3824BFB3F5001CDCF1FE5C0DD901F0004CAE
S31508000B484FEAC0024CEA5070B2F1004F40EB8300FE
S31508000B5808BF20F00100704711F0804F21D113F12A
S31508000B683872BCBF01F00040704741F480114FEA63
S31508000B785252C2F11802C2F1200C10FA0CF320FAEC
S31508000B8802F018BF40F001004FEAC1234FEAD32309
S31508000B9803FA0CFC40EA0C0023FA02F34FEA430373
S31508000BA8CCE77FEA625307D150EA01331EBF4FF0FC
S31508000BB8FE4040F44000704701F0004040F0FE4017
S31508000BC840F40000704700BF53B94AB9002908BF66
S31508000BD800281CBF4FF0FF314FF0FF3000F074B902
S31508000BE8ADF1080C6DE904CE00F006F8DDF804E06E
S31508000BF8DDE9022304B070472DE9F047089D04464D
S31508000C088E46002B4DD18A42944669D9B2FA82F2A9
S31508000C1852B101FA02F3C2F1200120FA01F10CFAE5
S31508000C2802FC41EA030E94404FEA1C48210CBEFB1D
S31508000C38F8F61FFA8CF708FB16E341EA034306FBA6
S31508000C4807F199420AD91CEB030306F1FF3080F035
S31508000C581F81994240F21C81023E63445B1AA4B282
S31508000C68B3FBF8F008FB103344EA034400FB07F724
S31508000C78A7420AD91CEB040400F1FF3380F00A8165
S31508000C88A74240F207816444023840EA0640E41B5A
S31508000C9800261DB1D4400023C5E900433146BDE806
S31508000CA8F0878B4209D9002D00F0EF800026C5E9A8
S31508000CB8000130463146BDE8F087B3FA83F6002EC0
S31508000CC84AD18B4202D3824200F2F980841A61EB38
S31508000CD8030301209E46002DE0D0C5E9004EDDE756
S31508000CE802B9FFDEB2FA82F2002A40F09280A1EB3E
S31508000CF80C014FEA1C471FFA8CFE0126200CB1FB93
S31508000D08F7F307FB131140EA01410EFB03F088428B
S31508000D1808D91CEB010103F1FF3802D2884200F218
S31508000D28CB804346091AA4B2B1FBF7F007FB1011AA
S31508000D3844EA01440EFB00FEA64508D91CEB040448
S31508000D4800F1FF3102D2A64500F2BB800846A4EBA3
S31508000D580E0440EA03409CE7C6F12007B34022FA8E
S31508000D6807FC4CEA030C20FA07F401FA06F31C43BD
S31508000D78F9404FEA1C4900FA06F3B1FBF9F8200CCA
S31508000D881FFA8CFE09FB181140EA014108FB0EF010
S31508000D98884202FA06F20BD91CEB010108F1FF3A60
S31508000DA880F08880884240F28580A8F1020861446C
S31508000DB8091AA4B2B1FBF9F009FB101144EA01417A
S31508000DC800FB0EFE8E4508D91CEB010100F1FF3425
S31508000DD86CD28E456AD90238614440EA0840A0FBBD
S31508000DE80294A1EB0E01A142C846A64656D353D093
S31508000DF85DB1B3EB080261EB0E0101FA07F722FAB7
S31508000E0806F3F1401F43C5E9007100263146BDE8DF
S31508000E18F087C2F12003D8400CFA02FC21FA03F342
S31508000E28914001434FEA1C471FFA8CFEB3FBF7F0C3
S31508000E3807FB10360B0C43EA064300FB0EF69E42E8
S31508000E4804FA02F408D91CEB030300F1FF382FD281
S31508000E589E422DD9023863449B1B89B2B3FBF7F629
S31508000E6807FB163341EA034106FB0EF38B4208D902
S31508000E781CEB010106F1FF3816D28B4214D9023E43
S31508000E886144C91A46EA004638E72E46284605E761
S31508000E980646E3E61846F8E64B45A9D2B9EB020832
S31508000EA864EB0C0E0138A3E74646EAE7204694E7C2
S31508000EB84046D1E7D0467BE7023B614432E73046F5
S31508000EC809E76444023842E7704700BF80B483B034
S31508000ED800AF78607B681B0218460C37BD465DF87C
S31508000EE8047B704780B500AF054B1B78DBB2062B31
S31508000EF802D000F0C1F801E000F074F900BF80BD27
S31508000F08C000002080B582B000AF0123FB71354BC5
S31508000F181B78002B4ED11021334801F053FA0346AB
S31508000F28012B47D1314B1B680A2B43D92F4B00227B
S31508000F381A6010212C4801F045FA0346012B39D1CD
S31508000F48284B01221A702A4B00221A60294B1B6863
S31508000F581846FFF7BBFF0346274A13600023FB71B1
S31508000F68264B1B7843F00103DAB2244B1A70244B3C
S31508000F781B7843F00103DAB2214B1A70214B1B6820
S31508000F880133204A1360204B1B78002B07D11A4BD4
S31508000F981B681E4A13601C4B01221A700AE01A4B7A
S31508000FA81B78012B06D1144B1B68194A1360164B7C
S31508000FB802221A7010210C4801F004FA0346002B85
S31508000FC80BD1084B00221A700023FB710B4B1B78B8
S31508000FD823F00103DAB2094B1A70FB791846083769
S31508000FE8BD4680BD9F00002000000240BC000020CE
S31508000FF8B4000020B8000020980000209C000020BB
S315080010089E000020940000209D0000208C000020EF
S315080010189000002080B483B000AF0023FB71114B09
S315080010281B78012B12D10F4B00221A700023FB7173
S315080010380D4B1B68012B0ED90C4B1A680C4B1B68F9
S315080010489A4208D00B4B01221A7104E0094B002278
S315080010581A710123FB71FB7918460C37BD465DF8F2
S31508001068047B70479E000020940000208C00002016
S3150800107890000020C000002080B582B000AF002391
S31508001088FB714FF4B473BB805A237B804F4B1B7894
S31508001098DBB2013B052B00F28D8001A252F823F042
S315080010A8C1100008C9100008EB1000081D11000837
S315080010B895110008BD110008444B02221A7080E0F9
S315080010C8FFF720FF0346FB71FFF7A4FF0346FB71F2
S315080010D83E4B1B79DBB2012B6ED13C4B03221A70AF
S315080010E86AE0FFF70FFF0346FB71394B1A68394B5D
S315080010F81B689A4205D000F0ABF803461A46334BEC
S315080011085A80324B5B889BB21E2B57D92F4B042229
S315080011181A7053E02D4B5B889BB2184600F000F90D
S3150800112803461A46294B5A71284B5B889BB2BA88DC
S315080011381146184600F058FA0346274A1360234B07
S315080011485B8898B2BA887B8813449BB2194600F024
S315080011584BFA0346214A13601F4B1B6819460020A1
S3150800116800F0A6FA0346194AD3601C4B1B681946B1
S31508001178002000F09DFA0346144A1361134BDB68F6
S31508001188124B1B69114B05221A701AE00F4B5B7834
S31508001198DBB2012B04D0124B1B78DBB2002B0FD124
S315080011A80F4B01221A70094B02225A70074B062266
S315080011B81A7005E000BF04E000BF02E000BF00E0C7
S315080011C800BF00BF0837BD4680BD00BFC00000206D
S315080011D8900000208C000020A0000020A400002019
S315080011E8A800002080B500AF164B1B681B02164ADC
S315080011F85361154B5B78DBB2013B042B1ED801A261
S3150800120852F823F03D120008211200082712000898
S315080012182F1200083512000800F05AFA0FE00A4B98
S3150800122801225A700BE000F07FFA08E0064B01220B
S315080012385A7004E0044B03221A7000E000BF00BF8E
S3150800124880BD00BFB4000020C000002000000000D8
S3150800125880B584B000AF0023FB600023BB604FF065
S3150800126800037B6000237B80274B1A68274B1B6883
S31508001278D31AFB60FB68264AA2FB03239B09BB60BB
S31508001288B868FFF7DFF802460B461BA1D1E900014B
S31508001298FFF77CFA02460B4610461946FFF744FC48
S315080012A803467B607868FFF7EFF84FF00002194BA2
S315080012B8FFF742F902460B461046194610A3D3E92A
S315080012C80023FFF763FA02460B4610461946FFF74E
S315080012D80BFC03467B80104B1B78022B06D10A4B66
S315080012E81B680A4A13600C4B01221A707B88184639
S315080012F81037BD4680BD00BF09944A702F8BB84089
S31508001308182D4454FB210940900000208C00002029
S31508001318D34D621000003E409D00002000000000EA
S315080013282DE9B0438AB000AF0346FB8042F2341376
S31508001338BB8400237B84002387F82730A44BFB61F2
S31508001348A44BBB61A44B7B61A44B3B61A44BFB60DC
S31508001358A44BBB60FB8842F20F72934202D9002362
S31508001368FB800CE0BA8CFB889A4202D8BB8CFB80BF
S3150800137805E0FA887B8C9A4201D87B8CFB80F86951
S31508001388FFF782F804460D46FB881846FFF75AF811
S3150800139802460B469FED861B43EC102B02F0ACF970
S315080013A853EC102B20462946FFF7C6F802460B468B
S315080013B890469946B869FFF767F804460D46FB88CC
S315080013C81846FFF73FF802460B469FED7B1B43EC92
S315080013D8102B02F091F953EC102B20462946FFF7FB
S315080013E8ABF802460B4640464946FEF7EFFE02466C
S315080013F80B46904699467869FFF746F804460D461F
S31508001408FB881846FFF71EF802460B469FED6C1B2D
S3150800141843EC102B02F070F953EC102B20462946A2
S31508001428FFF78AF802460B4640464946FEF7CEFEBF
S3150800143802460B46904699463869FFF725F804464A
S315080014480D46FB881846FEF7FDFF02460B469FED3C
S315080014585E1B43EC102B02F04FF953EC102B204679
S315080014682946FFF769F802460B4640464946FEF7FD
S31508001478ADFE02460B4614461D46FB8807EE903A13
S31508001488B8EEE77AD7ED037A67EE277A17EE900A69
S31508001498FEF7FAFF02460B4620462946FEF796FE51
S315080014A802460B4614461D46B868FEF7EDFF024687
S315080014B80B4620462946FEF789FE02460B4643ECAC
S315080014C8172BB0EE470AF0EE670A02F0CFF853EC8E
S315080014D8102B10461946FFF7DFFA034687F8273018
S315080014E8FB8883F005039BB207EE903AB8EEE77AD5
S315080014F8D7ED077A27EE277AFB8883F004039BB291
S3150800150807EE903AF8EEE76AD7ED067A66EEA77A16
S3150800151837EE277AFB8883F003039BB207EE903AE7
S31508001528F8EEE76AD7ED057A66EEA77A37EE277AF0
S31508001538FB8883F002039BB207EE903AF8EEE76A57
S31508001548D7ED047A66EEA77A37EE277AFB8807EE90
S31508001558903AF8EEE76AD7ED037A66EEA77A37EE99
S31508001568277AD7ED027A77EE277A17EE900AFEF7EA
S315080015788BFF02460B4643EC102B02F077F853EC28
S31508001588102B10461946FFF787FA034687F82730BF
S3150800159897F92730002B02DA002387F8273097F8BF
S315080015A8273018462837BD46BDE8B083AFF3008014
S315080015B80000000000001440000000000000104071
S315080015C8000000000000084000000000000000407D
S315080015D8702314A3DEC3892A110E37B1990541373A
S315080015E8622E29BC64066A3E80B586B000AF0346FB
S315080015F80A46FB801346BB804FF000033B61002375
S315080016087B610023FB60FB881846FEF72BFF4FF02B
S315080016180002234BFFF7BAF802460B46104619464E
S31508001628FFF782FA03463B61FB88002B04D11D4B62
S315080016381B6801331B4A13603B691846FEF724FFEB
S3150800164802460B464FF000001749FFF79FF8024677
S315080016580B46104619464FF00002144BFFF796F84A
S3150800166802460B46104619460BA3D3E90023FEF794
S3150800167863FF02460B4610461946FFF735FA034636
S315080016887B61BB887A6902FB03F3FB60FB68184633
S315080016981837BD4680BD00BF0000000080842E4173
S315080016A800004E40AC0000200000F03F0080764065
S315080016B880B485B000AF786039603A687B68D31A19
S315080016C8FB60FB6818461437BD465DF8047B70470F
S315080016D880B500AF124B5A69114BDB68A3F6C413E1
S315080016E89A4209D30F4B1B78002B05D100F06CF8EA
S315080016F80C4B01221A7011E0094B5A69084BDB6832
S315080017089A420BD3074B1B78012B07D100F068F8D0
S31508001718044B00221A70024B03225A7000BF80BD80
S31508001728C0000020B000002080B500AF144B5A69ED
S31508001738134B1B69A3F6C4139A4209D3114B1B789A
S31508001748002B05D100F058F80E4B01221A7014E048
S315080017580B4B5A690A4B1B699A420ED3094B1B78DD
S31508001768012B0AD100F054F8064B00221A70044BD4
S3150800177805225A70044B00221A6000BF80BD00BFBC
S31508001788C0000020B1000020B400002080B400AFDB
S3150800179800BFBD465DF8047B7047000080B400AF03
S315080017A8064B00221A60064B00221A60054B0022D7
S315080017B81A6000BFBD465DF8047B7047B800002074
S315080017C8B4000020BC00002080B500AF01224FF409
S315080017D88051024800F00EFE00BF80BD000C024092
S315080017E880B500AF00224FF48051024800F002FE8F
S315080017F800BF80BD000C024080B500AF01224FF43F
S315080018088041024800F0F6FD00BF80BD000C02408A
S3150800181880B500AF00224FF48041024800F0EAFD87
S3150800182800BF80BD000C024080B500AF00F00CF880
S3150800183800F010F800F015F8024B01221A7000BFE4
S3150800184880BD00BFC000002080B500AFFFF79EFF2F
S3150800185800BF80BD80B400AF00BFBD465DF8047BFD
S31508001868704780B500AFFFF799FF00BF80BD00003D
S3150800187880B500AF00F086FA00F00EF800F0C2F85E
S3150800188800F074F8034801F083FAFFF7CDFFFFF775
S3150800189829FBFCE7D800002080B594B000AF07F113
S315080018A8200330220021184601F0D8FE07F10C0360
S315080018B800221A605A609A60DA601A610023BB60CF
S315080018C8284B1B6C274A43F080531364254B1B6C23
S315080018D803F08053BB60BB6800237B60224B1B6800
S315080018E8214A43F4804313601F4B1B6803F4804363
S315080018F87B607B6801233B624FF480337B6202235B
S31508001908BB634FF48003FB6308233B644FF4A87357
S315080019187B640223BB640723FB6407F1200318468C
S3150800192800F082FD0346002B01D000F053F90F237F
S31508001938FB6002233B6100237B614FF4A053BB6124
S315080019484FF48053FB6107F10C030521184600F094
S31508001958E3FF0346002B01D000F03CF900BF5037DF
S31508001968BD4680BD003802400070004080B586B08C
S3150800197800AF07F1080300221A605A609A60DA6015
S315080019883B4600221A605A601D4B4FF080421A6087
S315080019981B4B54225A601A4B00229A60184BFF2296
S315080019A8DA60174B00221A61154B00229A6114480F
S315080019B801F09EF90346002B01D000F00BF94FF40D
S315080019C88053BB6007F1080319460D4801F058FB18
S315080019D80346002B01D000F0FDF820233B600023C6
S315080019E87B603B461946064801F07EFD0346002BF8
S315080019F801D000F0EFF800BF1837BD4680BD00BF1C
S31508001A08D800002080B58CB000AF07F11C0300226F
S31508001A181A605A609A60DA601A610023BB61674BDC
S31508001A281B6B664A43F010031363644B1B6B03F086
S31508001A381003BB61BB6900237B61604B1B6B5F4A64
S31508001A4843F0040313635D4B1B6B03F004037B61CC
S31508001A587B6900233B61594B1B6B584A43F080034B
S31508001A681363564B1B6B03F080033B613B690023EA
S31508001A78FB60524B1B6B514A43F0010313634F4BF0
S31508001A881B6B03F00103FB60FB680023BB604B4B31
S31508001A981B6B4A4A43F002031363484B1B6B03F05C
S31508001AA80203BB60BB6800237B60444B1B6B434A3D
S31508001AB843F008031363414B1B6B03F008037B6071
S31508001AC87B68002208213E4800F094FC0122012187
S31508001AD83C4800F08FFC00224FF210013A4800F00B
S31508001AE889FC0823FB6101233B6200237B620023F0
S31508001AF8BB6207F11C031946314800F0C7FA0123EF
S31508001B08FB6101233B6200237B620023BB6207F16A
S31508001B181C0319462B4800F0B9FA0123FB614FF458
S31508001B2890133B6200237B6207F11C03194627487A
S31508001B3800F0ACFA1023FB6100233B6200237B62AA
S31508001B4807F11C031946214800F0A0FA0423FB6193
S31508001B5800233B6200237B6207F11C0319461C48D5
S31508001B6800F094FA4FF21003FB6101233B6200234D
S31508001B787B620023BB6207F11C031946124800F072
S31508001B8885FA2023FB6100233B6200237B6207F169
S31508001B981C0319460C4800F079FA0223FB614FF436
S31508001BA890133B6200237B6207F11C03194604481D
S31508001BB800F06CFA00BF3037BD4680BD00380240D9
S31508001BC80010024000080240000C024000000240D3
S31508001BD80004024080B400AF72B600BFFEE70000FA
S31508001BE880B582B000AF00237B60104B5B6C0F4A50
S31508001BF843F4804353640D4B5B6C03F480437B606A
S31508001C087B6800233B60094B1B6C084A43F08053EA
S31508001C181364064B1B6C03F080533B603B68072034
S31508001C2800F0F2F900BF0837BD4680BD003802400B
S31508001C3880B584B000AF78607B681B68B3F1804FC5
S31508001C4815D10023FB600C4B1B6C0B4A43F00103B0
S31508001C581364094B1B6C03F00103FB60FB68012244
S31508001C6800211C2000F0DBF91C2000F0F4F900BF65
S31508001C781037BD4680BD00BF0038024080B400AFAB
S31508001C88FEE780B400AFFEE780B400AFFEE780B495
S31508001C9800AFFEE780B400AFFEE780B400AF00BF30
S31508001CA8BD465DF8047B704780B400AF00BFBD46EB
S31508001CB85DF8047B704780B400AF00BFBD465DF889
S31508001CC8047B704780B500AF00F0AEF800BF80BD52
S31508001CD880B500AF094801F0CBF8094B1B680133FA
S31508001CE8074A1360074B1B680133064A1360064BFD
S31508001CF81B680133044A136000BF80BDD800002062
S31508001D08B8000020B4000020BC00002080B400AF52
S31508001D18064BD3F88830054A43F47003C2F888306E
S31508001D2800BFBD465DF8047B704700BF00ED00E0C4
S31508001D38DFF834D00D480E490E4A002302E0D4587D
S31508001D48C4500433C4188C42F9D30B4A0B4C0023ED
S31508001D5801E013600432A242FBD3FFF7D7FF01F074
S31508001D6859FCFFF785FD7047000002200000002097
S31508001D7870000020A04500087000002024010020FB
S31508001D88FEE7000080B500AF0E4B1B680D4A43F40A
S31508001D98007313600B4B1B680A4A43F4806313608D
S31508001DA8084B1B68074A43F480731360032000F046
S31508001DB82BF9002000F008F8FFF712FF0023184651
S31508001DC880BD00BF003C024080B582B000AF786095
S31508001DD8124B1A68124B1B7819464FF47A73B3FBE1
S31508001DE8F1F3B2FBF3F3184600F043F90346002B68
S31508001DF801D001230EE07B680F2B0AD800227968E8
S31508001E084FF0FF3000F00BF9064A7B681360002391
S31508001E1800E0012318460837BD4680BD00000020AB
S31508001E28080000200400002080B400AF064B1B7889
S31508001E381A46064B1B681344044A136000BFBD467E
S31508001E485DF8047B704700BF0800002020010020C9
S31508001E5880B400AF034B1B681846BD465DF8047B83
S31508001E68704700BF2001002080B485B000AF7860B5
S31508001E787B6803F00703FB600C4BDB68BB60BA683A
S31508001E884FF6FF031340BB60FB681A02BB6813438F
S31508001E9843F0BF6343F40033BB60044ABB68D360AE
S31508001EA800BF1437BD465DF8047B704700ED00E0B7
S31508001EB880B400AF044BDB681B0A03F00703184617
S31508001EC8BD465DF8047B704700ED00E080B483B03A
S31508001ED800AF0346FB7197F90730002B0BDBFB793C
S31508001EE803F01F02074997F907305B09012000FA32
S31508001EF802F241F8232000BF0C37BD465DF8047B83
S31508001F08704700BF00E100E080B483B000AF034625
S31508001F183960FB7197F90730002B0ADB3B68DAB2A0
S31508001F280C4997F907301201D2B20B4483F80023FB
S31508001F380AE03B68DAB20849FB7903F00F03043B69
S31508001F481201D2B20B441A7600BF0C37BD465DF8AB
S31508001F58047B704700E100E000ED00E080B489B03A
S31508001F6800AFF860B9607A60FB6803F00703FB61A5
S31508001F78FB69C3F10703042B28BF0423BB61FB696C
S31508001F880433062B02D9FB69033B00E000237B6177
S31508001F984FF0FF32BB6902FA03F3DA43BB681A400B
S31508001FA87B699A404FF0FF317B6901FA03F3D943FD
S31508001FB87B680B40134318462437BD465DF8047BF7
S31508001FC87047000080B582B000AF78607B68013B37
S31508001FD8B3F1807F01D301230FE00A4A7B68013BEE
S31508001FE853600F214FF0FF30FFF78EFF054B002295
S31508001FF89A60044B07221A60002318460837BD461C
S3150800200880BD00BF10E000E080B582B000AF786000
S315080020187868FFF729FF00BF0837BD4680BD80B539
S3150800202886B000AF0346B9607A60FB7300237B610C
S31508002038FFF73EFF78617A68B9687869FFF78EFF17
S31508002048024697F90F3011461846FFF75DFF00BF9D
S315080020581837BD4680BD80B582B000AF0346FB7110
S3150800206897F907301846FFF731FF00BF0837BD460E
S3150800207880BD80B582B000AF78607868FFF7A2FFA8
S31508002088034618460837BD4680BD000080B489B0A7
S3150800209800AF7860396000237B6100233B61002329
S315080020A8BB610023FB616BE10122FB6902FA03F3BA
S315080020B87B613B681B687A6913403B613A697B69AF
S315080020C89A4240F05A813B685B6803F00303012B88
S315080020D805D03B685B6803F00303022B30D17B68A5
S315080020E89B68BB61FB695B00032202FA03F3DB43C7
S315080020F8BA691340BB613B68DA68FB695B0002FA98
S3150800210803F3BA691343BB617B68BA699A607B684B
S315080021185B68BB610122FB6902FA03F3DB43BA6910
S315080021281340BB613B685B681B0903F00102FB6946
S3150800213802FA03F3BA691343BB617B68BA695A6042
S315080021483B685B6803F00303032B17D07B68DB68DF
S31508002158BB61FB695B00032202FA03F3DB43BA6936
S315080021681340BB613B689A68FB695B0002FA03F394
S31508002178BA691343BB617B68BA69DA603B685B680E
S3150800218803F00303022B23D1FB69DA087B680832BC
S3150800219853F82230BB61FB6903F007039B000F2243
S315080021A802FA03F3DB43BA691340BB613B681A6951
S315080021B8FB6903F007039B0002FA03F3BA691343A2
S315080021C8BB61FB69DA087B680832B96943F82210EB
S315080021D87B681B68BB61FB695B00032202FA03F391
S315080021E8DB43BA691340BB613B685B6803F00302CB
S315080021F8FB695B0002FA03F3BA691343BB617B68A0
S31508002208BA691A603B685B6803F44033002B00F030
S31508002218B4800023FB60604B5B6C5F4A43F48043E1
S3150800222853645D4B5B6C03F48043FB60FB685B4A55
S31508002238FB699B08023352F82330BB61FB6903F03C
S3150800224803039B000F2202FA03F3DB43BA69134020
S31508002258BB617B68524A93422BD07B68514A9342AA
S3150800226825D07B68504A93421FD07B684F4A9342D1
S3150800227819D07B684E4A934213D07B684D4A9342DD
S315080022880DD07B684C4A934207D07B684B4A9342E9
S3150800229801D107230EE008230CE006230AE00523EC
S315080022A808E0042306E0032304E0022302E00123EE
S315080022B800E00023FA6902F0030292009340BA6923
S315080022C81343BB613549FB699B080233BA6941F870
S315080022D823203B4B9B68BB613B69DB43BA691340C8
S315080022E8BB613B685B6803F48013002B03D0BA69AB
S315080022F83B691343BB61324ABB699360304BDB6861
S31508002308BB613B69DB43BA691340BB613B685B68E1
S3150800231803F40013002B03D0BA693B691343BB6166
S31508002328274ABB69D360264B5B68BB613B69DB43BD
S31508002338BA691340BB613B685B6803F40033002B3A
S3150800234803D0BA693B691343BB611D4ABB6953602D
S315080023581B4B1B68BB613B69DB43BA691340BB610E
S315080023683B685B6803F48033002B03D0BA693B6982
S315080023781343BB61124ABB691360FB690133FB61EE
S31508002388FB690F2B7FF690AE00BF00BF2437BD460A
S315080023985DF8047B704700BF0038024000380140EA
S315080023A8000002400004024000080240000C0240F7
S315080023B8001002400014024000180240001C0240A7
S315080023C8003C014080B485B000AF78600B467B803E
S315080023D87B681A697B881340002B02D00123FB739C
S315080023E801E00023FB73FB7B18461437BD465DF8EE
S315080023F8047B704780B483B000AF78600B467B8057
S3150800240813467B707B78002B03D07A887B689A61A1
S3150800241803E07B881A047B689A6100BF0C37BD46BF
S315080024285DF8047B7047000080B586B000AF786019
S315080024387B68002B01D1012367E27B681B6803F0E0
S315080024480103002B75D0884B9B6803F00C03042BFB
S315080024580CD0854B9B6803F00C03082B12D1824BD2
S315080024685B6803F48003B3F5800F0BD17E4B1B68BA
S3150800247803F40033002B5BD07B685B68002B57D1CD
S31508002488012342E27B685B68B3F5803F06D1764B49
S315080024981B68754A43F4803313601DE07B685B68E4
S315080024A8B3F5A02F0CD1704B1B686F4A43F48023F1
S315080024B813606D4B1B686C4A43F4803313600BE05A
S315080024C8694B1B68684A23F480331360664B1B689C
S315080024D8654A23F4802313607B685B68002B13D056
S315080024E8FFF7B6FC386108E0FFF7B2FC02463B691D
S315080024F8D31A642B01D9032307E25B4B1B6803F441
S315080025080033002BF0D014E0FFF7A2FC386108E08E
S31508002518FFF79EFC02463B69D31A642B01D90323AD
S31508002528F3E1514B1B6803F40033002BF0D100E0AC
S3150800253800BF7B681B6803F00203002B63D04A4B75
S315080025489B6803F00C03002B0BD0474B9B6803F0E2
S315080025580C03082B1CD1444B5B6803F48003002B3F
S3150800256816D1414B1B6803F00203002B05D07B6884
S31508002578DB68012B01D00123C7E13B4B1B6823F01D
S31508002588F8027B681B69DB00374913430B603AE09E
S315080025987B68DB68002B20D0344B01221A60FFF7D2
S315080025A857FC386108E0FFF753FC02463B69D31A23
S315080025B8022B01D90323A8E12B4B1B6803F002035E
S315080025C8002BF0D0284B1B6823F0F8027B681B69A0
S315080025D8DB00254913430B6015E0244B00221A60DB
S315080025E8FFF736FC386108E0FFF732FC02463B691C
S315080025F8D31A022B01D9032387E11B4B1B6803F067
S315080026080203002BF0D17B681B6803F00803002B34
S3150800261836D07B685B69002B16D0154B01221A60E9
S31508002628FFF716FC386108E0FFF712FC02463B691B
S31508002638D31A022B01D9032367E10B4B5B6F03F00F
S315080026480203002BF0D01BE0094B00221A60FFF7A3
S31508002658FFFB38610EE0FFF7FBFB02463B69D31A1E
S31508002668022B07D9032350E10038024000004742ED
S31508002678800E4742884B5B6F03F00203002BEAD1B2
S315080026887B681B6803F00403002B00F0978000237F
S31508002698FB75814B1B6C03F08053002B0FD100236D
S315080026A8BB607D4B1B6C7C4A43F0805313647A4BA2
S315080026B81B6C03F08053BB60BB680123FB75774B23
S315080026C81B6803F48073002B18D1744B1B68734A74
S315080026D843F480731360FFF7BBFB386108E0FFF724
S315080026E8B7FB02463B69D31A022B01D903230CE12F
S315080026F86A4B1B6803F48073002BF0D07B689B68D1
S31508002708012B06D1644B1B6F634A43F00103136719
S315080027181CE07B689B68052B0CD15F4B1B6F5E4AD8
S3150800272843F0040313675C4B1B6F5B4A43F00103D2
S3150800273813670BE0584B1B6F574A23F001031367BF
S31508002748554B1B6F544A23F0040313677B689B6831
S31508002758002B15D0FFF77CFB38610AE0FFF778FBFA
S3150800276802463B69D31A41F28832934201D90323B8
S31508002778CBE0494B1B6F03F00203002BEED014E0A5
S31508002788FFF766FB38610AE0FFF762FB02463B691A
S31508002798D31A41F28832934201D90323B5E03E4B56
S315080027A81B6F03F00203002BEED1FB7D012B05D12D
S315080027B8394B1B6C384A23F0805313647B689B6932
S315080027C8002B00F0A180344B9B6803F00C03082B00
S315080027D85CD07B689B69022B41D1314B00221A6079
S315080027E8FFF736FB386108E0FFF732FB02463B691C
S315080027F8D31A022B01D9032387E0274B1B6803F05A
S315080028080073002BF0D17B68DA697B681B6A1A4368
S315080028187B685B6A9B011A437B689B6A5B08013B7A
S315080028281B041A437B68DB6A1B061B4913434B6068
S315080028381B4B01221A60FFF70BFB386108E0FFF70C
S3150800284807FB02463B69D31A022B01D903235CE02E
S31508002858114B1B6803F00073002BF0D054E0104BA3
S3150800286800221A60FFF7F4FA386108E0FFF7F0FA71
S3150800287802463B69D31A022B01D9032345E0064BC6
S315080028881B6803F00073002BF0D13DE07B689B6959
S31508002898012B07D1012338E00038024000700040B8
S315080028A8600047421B4B5B68FB607B689B69012B92
S315080028B828D0FB6803F480027B68DB699A4221D139
S315080028C8FB6803F03F027B681B6A9A421AD1FA68CA
S315080028D847F6C07313407A68526A9201934211D137
S315080028E8FB6803F440327B689B6A5B08013B1B0460
S315080028F89A4207D1FB6803F070627B68DB6A1B069D
S315080029089A4201D0012300E0002318461837BD462D
S3150800291880BD00BF0038024080B584B000AF78603B
S3150800292839607B68002B01D10123CCE0684B1B6812
S3150800293803F007033A689A420CD9654B3A68D2B24B
S315080029481A70634B1B6803F007033A689A4201D06A
S315080029580123B8E07B681B6803F00203002B20D02C
S315080029687B681B6803F00403002B05D0594B9B684A
S31508002978584A43F4E05393607B681B6803F00803DE
S31508002988002B05D0534B9B68524A43F46043936027
S31508002998504B9B6823F0F0027B689B684D491343AC
S315080029A88B607B681B6803F00103002B44D07B68A7
S315080029B85B68012B07D1474B1B6803F40033002BD0
S315080029C819D101237FE07B685B68022B03D07B68FB
S315080029D85B68032B07D13F4B1B6803F00073002B7A
S315080029E809D101236FE03B4B1B6803F00203002B58
S315080029F801D1012367E0374B9B6823F003027B6804
S31508002A085B68344913438B60FFF722FAF8600AE0DB
S31508002A18FFF71EFA0246FB68D31A41F28832934238
S31508002A2801D903234FE02B4B9B6803F00C027B6804
S31508002A385B689B009A42EBD1254B1B6803F007039A
S31508002A483A689A420CD2224B3A68D2B21A70204B8C
S31508002A581B6803F007033A689A4201D0012332E05B
S31508002A687B681B6803F00403002B08D0194B9B6886
S31508002A7823F4E0527B68DB68164913438B607B684E
S31508002A881B6803F00803002B09D0124B9B6823F434
S31508002A9860427B681B69DB000E4913438B6000F0B4
S31508002AA821F802460B4B9B681B0903F00F030A49DA
S31508002AB8CB5C22FA03F3094A1360094B1B681846CC
S31508002AC8FFF782F9002318461037BD4680BD00BFB8
S31508002AD8003C02400038024050450008000000202B
S31508002AE8040000202DE9B04F94B000AF00237B64A2
S31508002AF80023FB6400233B640023BB64794B9B6873
S31508002B0803F00C03082B0DD0082B00F2E180002BEC
S31508002B1802D0042B03D0DBE0734BBB64DBE0734BBA
S31508002B28BB64D8E06F4B5B6803F03F037B646D4B6F
S31508002B385B6803F48003002B63D06A4B5B689B09C8
S31508002B480022BB63FA63BB6BC3F308033B6300232A
S31508002B587B63D7E90C4522462B464FF000004FF019
S31508002B680001590141EAD261500102460B46214645
S31508002B78511A3961294663EB01037B614FF000025C
S31508002B884FF00003D7E904AB59468B01514643EA8F
S31508002B98916351468A015146B2EB0108594663EBDF
S31508002BA801094FF000024FF000034FEAC90343EA50
S31508002BB858734FEAC80290469946234618EB03030A
S31508002BC8BB602B4649EB0303FB604FF000024FF04E
S31508002BD80003D7E9024529464B02214643EAD15361
S31508002BE821464A02104619467B6C0022BB62FA62E5
S31508002BF8D7E90A23FDF7E8FF02460B461346FB64A6
S31508002C0858E0384B5B689B09002218461146C0F302
S31508002C1808033B6200237B62D7E9088942464B468C
S31508002C284FF000004FF00001590141EAD261500106
S31508002C3802460B464146B2EB010A494663EB010BCD
S31508002C484FF000024FF000034FEA8B1343EA9A63EA
S31508002C584FEA8A12B2EB0A0463EB0B054FF000023F
S31508002C684FF00003EB0043EA5473E20014461D468E
S31508002C784346E3183B604B4645EB03037B604FF03E
S31508002C8800024FF00003D7E9004529468B02214682
S31508002C9843EA915321468A02104619467B6C00225C
S31508002CA8BB61FA61D7E90623FDF78EFF02460B4694
S31508002CB81346FB640B4B5B681B0C03F003030133D9
S31508002CC85B003B64FA6C3B6CB2FBF3F3BB6402E053
S31508002CD8054BBB6400BFBB6C18465037BD46BDE8FC
S31508002CE8B08F00BF003802400024F40000127A00B2
S31508002CF880B582B000AF78607B68002B01D10123CC
S31508002D0841E07B6893F83D30DBB2002B06D17B683F
S31508002D18002283F83C207868FEF78AFF7B6802223F
S31508002D2883F83D207B681A687B6804331946104681
S31508002D3800F0A0FA7B68012283F846207B68012206
S31508002D4883F83E207B68012283F83F207B680122AE
S31508002D5883F840207B68012283F841207B6801229A
S31508002D6883F842207B68012283F843207B68012286
S31508002D7883F844207B68012283F845207B68012272
S31508002D8883F83D20002318460837BD4680BD000055
S31508002D9880B485B000AF78607B6893F83D30DBB2C5
S31508002DA8012B01D001234EE07B68022283F83D20DF
S31508002DB87B681B68DA687B681B6842F00102DA6080
S31508002DC87B681B68234A934222D07B681B68B3F149
S31508002DD8804F1DD07B681B681F4A934218D07B68B2
S31508002DE81B681E4A934213D07B681B681C4A934289
S31508002DF80ED07B681B681B4A934209D07B681B6800
S31508002E08194A934204D07B681B68184A934211D121
S31508002E187B681B689B6803F00703FB60FB68062B47
S31508002E2810D07B681B681A687B681B6842F0010229
S31508002E381A6007E07B681B681A687B681B6842F09B
S31508002E4801021A60002318461437BD465DF8047B4C
S31508002E58704700BF00000140000400400008004019
S31508002E68000C0040000401400040014000180040E2
S31508002E7880B582B000AF78607B681B681B6903F071
S31508002E880203022B22D17B681B68DB6803F0020366
S31508002E98022B1BD17B681B686FF002021A617B68DC
S31508002EA801221A777B681B689B6903F00303002BCA
S31508002EB803D0786800F0BFF905E0786800F0B1F942
S31508002EC8786800F0C2F97B6800221A777B681B6865
S31508002ED81B6903F00403042B22D17B681B68DB6893
S31508002EE803F00403042B1BD17B681B686FF00402EC
S31508002EF81A617B6802221A777B681B689B6903F448
S31508002F084073002B03D0786800F095F905E07868D7
S31508002F1800F087F9786800F098F97B6800221A7734
S31508002F287B681B681B6903F00803082B22D17B689A
S31508002F381B68DB6803F00803082B1BD17B681B6832
S31508002F486FF008021A617B6804221A777B681B6887
S31508002F58DB6903F00303002B03D0786800F06BF9EC
S31508002F6805E0786800F05DF9786800F06EF97B6826
S31508002F7800221A777B681B681B6903F01003102B5D
S31508002F8822D17B681B68DB6803F01003102B1BD162
S31508002F987B681B686FF010021A617B6808221A772B
S31508002FA87B681B68DB6903F44073002B03D07868D9
S31508002FB800F041F905E0786800F033F9786800F020
S31508002FC844F97B6800221A777B681B681B6903F03B
S31508002FD80103012B0ED17B681B68DB6803F001032C
S31508002FE8012B07D17B681B686FF001021A617868A4
S31508002FF800F00DF97B681B681B6903F08003802BBA
S315080030080ED17B681B68DB6803F08003802B07D129
S315080030187B681B686FF080021A61786800F0EAFA24
S315080030287B681B681B6903F04003402B0ED17B683D
S315080030381B68DB6803F04003402B07D17B681B68D5
S315080030486FF040021A61786800F009F97B681B6816
S315080030581B6903F02003202B0ED17B681B68DB68ED
S3150800306803F02003202B07D17B681B686FF020022A
S315080030781A61786800F0B4FA00BF0837BD4680BD03
S3150800308880B584B000AF786039600023FB737B682D
S3150800309893F83C30012B01D10223B4E07B68012266
S315080030A883F83C207B68022283F83D207B681B68EE
S315080030B89B68BB60BB6823F07703BB60BB6823F4D7
S315080030C87F43BB607B681B68BA689A603B681B6865
S315080030D8B3F5005F3ED0B3F5005F00F28780B3F51D
S315080030E8805F00F08680B3F5805F7FD8702B1AD092
S315080030F8702B7BD8602B50D0602B77D8502B3CD0C0
S31508003108502B73D8402B58D0402B6FD8302B64D00F
S31508003118302B6BD8202B60D0202B67D8002B5CD09F
S31508003128102B5AD062E07B6818683B6899683B6838
S315080031385A683B68DB6800F0B7F97B681B689B68C8
S31508003148BB60BB6843F07703BB607B681B68BA68DB
S315080031589A604FE07B6818683B6899683B685A68C4
S315080031683B68DB6800F0A0F97B681B689A687B688F
S315080031781B6842F480429A603CE07B6818683B68A2
S3150800318859683B68DB681A4600F014F97B681B68BF
S315080031985021184600F06DF92CE07B6818683B68E2
S315080031A859683B68DB681A4600F033F97B681B6880
S315080031B86021184600F05DF91CE07B6818683B68D2
S315080031C859683B68DB681A4600F0F4F87B681B68A0
S315080031D84021184600F04DF90CE07B681A683B68F0
S315080031E81B681946104600F044F903E00123FB73EF
S315080031F800E000BF7B68012283F83D207B68002237
S3150800320883F83C20FB7B18461037BD4680BD80B442
S3150800321883B000AF786000BF0C37BD465DF8047B05
S31508003228704780B483B000AF786000BF0C37BD46DE
S315080032385DF8047B704780B483B000AF786000BF40
S315080032480C37BD465DF8047B704780B483B000AF81
S31508003258786000BF0C37BD465DF8047B704780B4BC
S3150800326883B000AF786000BF0C37BD465DF8047BB5
S315080032787047000080B485B000AF786039607B6815
S315080032881B68FB607B68404A934213D07B68B3F19E
S31508003298804F0FD07B683D4A93420BD07B683C4AE7
S315080032A8934207D07B683B4A934203D07B683A4AE5
S315080032B8934208D1FB6823F07003FB603B685B68A0
S315080032C8FA681343FB607B682F4A93422BD07B68C6
S315080032D8B3F1804F27D07B682C4A934223D07B686A
S315080032E82B4A93421FD07B682A4A93421BD07B6895
S315080032F8294A934217D07B68284A934213D07B6899
S31508003308274A93420FD07B68264A93420BD07B689C
S31508003318254A934207D07B68244A934203D07B68A0
S31508003328234A934208D1FB6823F44073FB603B6841
S31508003338DB68FA681343FB60FB6823F080023B6886
S315080033485B691343FB607B68FA681A603B689A688E
S315080033587B68DA623B681A687B689A627B680A4AFD
S31508003368934203D07B680C4A934203D13B681A6997
S315080033787B681A637B6801225A6100BF1437BD4609
S315080033885DF8047B704700BF000001400004004058
S3150800339800080040000C00400004014000400140BD
S315080033A8004401400048014000180040001C004045
S315080033B80020004080B487B000AFF860B9607A6032
S315080033C8FB681B6A7B61FB681B6A23F00102FB68C2
S315080033D81A62FB689B693B613B6923F0F0033B6112
S315080033E87B681B013A6913433B617B6923F00A032F
S315080033F87B617A69BB6813437B61FB683A699A61A2
S31508003408FB687A691A6200BF1C37BD465DF8047BFB
S31508003418704780B487B000AFF860B9607A60FB6817
S315080034281B6A23F01002FB681A62FB689B697B61BA
S31508003438FB681B6A3B617B6923F470437B617B6885
S315080034481B037A6913437B613B6923F0A0033B613D
S31508003458BB681B013A6913433B61FB687A699A6141
S31508003468FB683A691A6200BF1C37BD465DF8047BDB
S31508003478704780B485B000AF786039607B689B6810
S31508003488FB60FB6823F07003FB603A68FB6813432C
S3150800349843F00703FB607B68FA689A6000BF143735
S315080034A8BD465DF8047B704780B487B000AFF86006
S315080034B8B9607A603B60FB689B687B617B6923F42B
S315080034C87F437B613B681A027B681A43BB681343D0
S315080034D87A6913437B61FB687A699A6000BF1C376F
S315080034E8BD465DF8047B704780B485B000AF786048
S315080034F839607B6893F83C30012B01D102235AE0E6
S315080035087B68012283F83C207B68022283F83D20E9
S315080035187B681B685B68FB607B681B689B68BB608D
S31508003528FB6823F07003FB603B681B68FA68134363
S31508003538FB607B681B68FA685A607B681B68214AC7
S31508003548934222D07B681B68B3F1804F1DD07B68F5
S315080035581B681D4A934218D07B681B681B4A93420E
S3150800356813D07B681B681A4A93420ED07B681B687F
S31508003578184A934209D07B681B68174A934204D0B5
S315080035887B681B68154A93420CD1BB6823F08003F5
S31508003598BB603B685B68BA681343BB607B681B689B
S315080035A8BA689A607B68012283F83D207B68002206
S315080035B883F83C20002318461437BD465DF8047B7B
S315080035C8704700BF000001400004004000080040A2
S315080035D8000C00400004014000400140001800406B
S315080035E880B483B000AF786000BF0C37BD465DF87D
S315080035F8047B704780B483B000AF786000BF0C378F
S31508003608BD465DF8047B7047014B1868704700BFD4
S315080036180C00002070B50D4D0D4C641BA410002637
S31508003628A64209D10B4D0C4C00F080FF641BA41070
S315080036380026A64205D170BD55F8043B98470136C1
S31508003648EEE755F8043B98470136F2E7984500082F
S3150800365898450008984500089C4500080244034612
S31508003668934200D1704703F8011BF9E751EC100B98
S3150800367870B5C1F30A55A5F2FF34132C10EE102ABB
S315080036880B4619DC002C09DA013401F0004303D192
S3150800369843F07F5343F44013002228E0154D254193
S315080036A801EA050632430ED04FF4002242FA04F422
S315080036B8234423EA0503EFE7332C07DDB4F5806FC7
S315080036C801D1FCF783FD41EC100B70BDA5F213463A
S315080036D84FF0FF35F5402842F5D00121C4F13304EF
S315080036E801FA04F4121928BF5B1822EA05021946DA
S315080036F81046E8E7FFFF0F00F8B52DED028BB0EE90
S31508003708408AF0EE608A55EC114B00F065F82246BF
S315080037182B462046294657EC106BFDF7A7F90028D3
S315080037283BD151EC180B00220023FDF76DF9B8B10F
S315080037380022002320462946FDF766F9002846D1C7
S3150800374845EC104B00F061FE38B3002200232046F2
S315080037582946FDF763F900B3FFF756FF22231BE056
S3150800376847EC106B00F051FEE0B9B0EE480AF0EEEF
S31508003778680A00F04AFEA8B145EC104B00F045FE71
S3150800378880B132463B4630463946FDF76FF9002880
S31508003798E2D0FFF739FF21230360BDEC028B47EC23
S315080037A8106BF8BD0022002330463946FDF72CF980
S315080037B80028F2D0B0EE480AF0EE680A00F025FEB6
S315080037C80028EAD045EC104B00F01FFEC3E7014F6E
S315080037D80026E2E70000F03F2DE9F04F2DED068BB5
S315080037E889B08DED001BDDE9002929F0004858EA63
S315080037F8020157EC106B15D1B31987F40022524110
S315080038089942894B934180F0D284DDE900233046FA
S315080038183946FCF7DBFC41EC100B09B0BDEC068B0E
S31508003828BDE8F08F814B27F000449C4210EE10AAA1
S315080038383D4606DC01D1002EE7D1984501DC0FD1BB
S3150800384872B105F1404505F5801555EA0A05DCD13A
S31508003858DDE90032DB1882F4002252419D42D0E7A6
S31508003868002D3BDA724B984551DCA3F15473984501
S3150800387840F3AC844FEA2853A3F2FF33142B0FDD29
S31508003888C3F1340322FA03F101FA03F3934240F031
S315080038989D8401F00101C1F10203049382B15FE03E
S315080038A8002A5BD1C3F1140348FA03F101FA03F3BA
S315080038B8434540F0888401F00101C1F102030493ED
S315080038C85C4B984532D1B9F1000F80F27884594992
S315080038D832463B460020FCF759FF9CE70023049331
S315080038E8002A3DD1514B9845EAD104F1404303F5E6
S315080038F8801353EA0A0300F05A844F4B9C4208DDAA
S31508003908B9F1000FC0F25784DDE9000183E7022305
S31508003918E5E7B9F1000F4FF000004FF00001BFF6D8
S315080039287AAFDDE9000303F1004174E7B9F1804F86
S3150800393806D132463B4630463946FCF7FDFD6AE76E
S315080039483E4B99450CD1002D0ADB47EC106B09B0A4
S31508003958BDEC068BBDE8F04F00F06CBC0023049361
S3150800396847EC106B00F048FD51EC100BBAF1000F4C
S3150800397829D124B12F4B25F040429A4223D1B9F1D7
S31508003988000F05DA02460B4600202A49FCF7FEFE18
S31508003998002DBFF640AF049B04F1404404F580149B
S315080039A8234308D102460B4610461946FCF70CFC79
S315080039B802460B468FE7049B012B7FF42CAF01F1D7
S315080039C80043194627E7EB0F013B0693069A049B23
S315080039D8134302D132463B46E6E7194B984540F36E
S315080039E8FB8003F104739845134B0CDD9C420FDCEE
S315080039F8B9F1000F0FDA002009B0BDEC068BBDE857
S31508003A08F04F00F0F0BC9C42F2DB0A4B9C4219DDF1
S31508003A18B9F1000FEFDC002009B0BDEC068BBDE854
S31508003A28F04F00F0D7BC00BF0000F0FF0000F07FA1
S31508003A38FFFF3F430000F03FFFFFEF3F0000E03F76
S31508003A480000E041604B0022FCF7BEFB54A3D3E913
S31508003A58002304460D46FCF76FFD53A3D3E900235C
S31508003A6806460F4620462946FCF766FD574B82460A
S31508003A788B46002220462946FCF75EFD02460B4681
S31508003A884BA1D1E90001FCF79FFB22462B46FCF720
S31508003A9853FD02460B4600204D49FCF795FB224686
S31508003AA8804689462B4620462946FCF745FD0246A8
S31508003AB80B4640464946FCF73FFD3FA3D3E900239A
S31508003AC8FCF73AFD02460B4650465946FCF77CFB7E
S31508003AD802460B468046894630463946FCF776FB49
S31508003AE8002032463B4604460D46FCF76DFB024667
S31508003AF80B4640464946FCF767FB049B069A013B7A
S31508003B08134382468B4640F0E7819FED2D7BB0EE46
S31508003B18478AF0EE678ADDE90067002632463B46A3
S31508003B28DDE90001FCF750FB22462B46FCF704FDAD
S31508003B38DDE900238046894650465946FCF7FCFCD1
S31508003B4802460B4640464946FCF740FB32463B468A
S31508003B588046894620462946FCF7EEFC0B4604466D
S31508003B680D46024649464046FCF730FB194B994232
S31508003B7845EC194B06460F468B4640F3F18201F190
S31508003B883F4303F5E003034300F0E48151EC180BC7
S31508003B9800220023FCF742FF003818BF01202BE754
S31508003BA8000000604715F73F44DF5DF80BAE543E4A
S31508003BB8555555555555D53FFE822B654715F73F3B
S31508003BC8000000000000F0BF0000F03F0000D03FF2
S31508003BD80000E03FFFFF8F40D54B2B4000222BB952
S31508003BE8D44BFCF7A9FC6FF034020C462315A3F254
S31508003BF8FF3313440593D04BC4F3130444F07F559D
S31508003C089C4245F4401508DDCC4B9C4240F3628142
S31508003C18059B01330593A5F580150024E300079352
S31508003C28C74B03EBC40393ED007B294653EC172BCC
S31508003C38B0EE479AF0EE679A8246FCF7C5FA5246FE
S31508003C4806460F462B4651EC190BFCF7BFFA0246F7
S31508003C580B460020BB49FCF799FD41EC1A0B0246B6
S31508003C680B4630463946FCF767FC0023CDE90201C6
S31508003C780293DDE90289AB466D1045F0005505F556
S31508003C88002541EC180B05EB8443002240464946BB
S31508003C9814461D46FCF750FC02460B463046394684
S31508003CA8FCF792FA53EC192B06460F462046294686
S31508003CB8FCF78AFA02460B4650465946FCF784FA38
S31508003CC842464B46FCF738FC02460B463046394610
S31508003CD8FCF77AFA53EC1A2BFCF72EFC53EC182B44
S31508003CE841EC190B51EC180BFCF726FC7CA3D3E91D
S31508003CF8002304460D46FCF71FFC7BA3D3E90023E3
S31508003D08FCF764FA22462B46FCF716FC78A3D3E997
S31508003D180023FCF75BFA22462B46FCF70DFC76A334
S31508003D28D3E90023FCF752FA22462B46FCF704FC93
S31508003D3873A3D3E90023FCF749FA22462B46FCF776
S31508003D48FBFB71A3D3E90023FCF740FA2246064693
S31508003D580F462B4620462946FCF7EEFB02460B463D
S31508003D6830463946FCF7E8FB424604460D464B46BC
S31508003D7851EC180BFCF72AFA53EC192BFCF7DCFB69
S31508003D8822462B46FCF722FA424682468B464B4683
S31508003D9840464946FCF7D0FB6B4B002206460F46C1
S31508003DA8FCF714FA52465B46FCF710FA002004465C
S31508003DB80D4602460B4640464946FCF7BDFB624B94
S31508003DC880468946002220462946FCF7FDF93246F0
S31508003DD83B46FCF7F9F902460B4650465946FCF7A6
S31508003DE8F3F953EC182BFCF7A7FB224606460F46B1
S31508003DF82B4651EC190BFCF79FFB02460B4630463F
S31508003E083946FCF7E3F906460F4602460B4640468E
S31508003E184946FCF7DBF93EA3D3E90023002004460C
S31508003E280D46FCF789FB424641EC180B4B462046E3
S31508003E382946FCF7C9F902460B4630463946FCF7C7
S31508003E48C3F935A3D3E90023FCF776FB34A3D3E9F2
S31508003E58002306460F4620462946FCF76DFB024610
S31508003E680B4630463946FCF7B1F9079A374B1344DF
S31508003E78D3E90023FCF7AAF9824605988B46FCF78E
S31508003E88F1FA079A324B1344D3E9008906460F46D6
S31508003E9852465B4651EC180BFCF798F942464B46D6
S31508003EA8FCF794F932463B46FCF790F9002032466F
S31508003EB83B4604460D46FCF787F942464B46FCF74F
S31508003EC883F953EC182BFCF77FF902460B46504644
S31508003ED8594610E60124A1E69FED137B17E600BFB5
S31508003EE8EF4E454A287ECA3F65DBC9934A86CD3FC9
S31508003EF801411DA96074D13F4D268F515555D53FAF
S31508003F08FFAB6FDBB66DDB3F033333333333E33F46
S31508003F18000000E009C7EE3FFD033ADC09C7EE3F9B
S31508003F28F5015B14E02F3EBE000000000000F03FDC
S31508003F380000F07F000040438E98030079B60B0016
S31508003F48604500080000F03F00000840804500086A
S31508003F5870450008B5A3D3E9002340464946FCF74F
S31508003F6835F9224641EC1A0B2B4630463946FCF7FA
S31508003F782BF902460B4651EC1A0BFCF76DFD002887
S31508003F887FF404AEA44A2BF00043934240F3088119
S31508003F981B154FF4801AA3F2FE334AFA03F35B445F
S31508003FA8C3F30A529D4EA2F2FF321641C3F3130A0F
S31508003FB8002023EA0601C2F114024AF4801A4AFAD2
S31508003FC802FABBF1000F02460B4620462946B8BF3F
S31508003FD8CAF1000AFCF7F8F841EC190B42464B46B9
S31508003FE851EC190BFCF7F2F87BA3D3E90023002060
S31508003FF804460D46FCF7A0FA53EC192B06460F465D
S3150800400820462946FCF7E0F802460B46404649464C
S31508004018FCF7DAF872A3D3E90023FCF78DFA72A342
S31508004028D3E900238046894620462946FCF784FAC0
S3150800403802460B4640464946FCF7C8F804460D466C
S3150800404802460B4630463946FCF7C0F832463B4628
S3150800405880468946FCF7B8F802460B4620462946A4
S31508004068FCF7B2F8424606460F464B4640464946CE
S31508004078FCF762FA5EA3D3E9002304460D46FCF76B
S315080040885BFA5DA3D3E90023FCF79EF822462B4684
S31508004098FCF752FA5AA3D3E90023FCF797F8224605
S315080040A82B46FCF749FA58A3D3E90023FCF78CF802
S315080040B822462B46FCF740FA55A3D3E90023FCF71A
S315080040C885F822462B46FCF737FA02460B46404641
S315080040D84946FCF779F804460D4602460B4640461B
S315080040E84946FCF729FA002241EC190B4FF08043A0
S315080040F820462946FCF768F802460B4651EC190B88
S31508004108FCF744FB324604460D463B4640464946BC
S31508004118FCF712FA32463B46FCF758F802460B46B5
S3150800412820462946FCF750F842464B46FCF74CF819
S315080041380B4602463A490020FCF746F841EC100BB4
S3150800414810EE903A03EB0A53B3F5801F2BDA504664
S3150800415800F066F951EC100B53EC182BFFF7EDBB82
S31508004168304B21F000469E427FF70CAF2E4B0B448E
S31508004178034309D051EC180B00220023FCF74EFC28
S31508004188003818BF012047E422462B46FCF71CF8DE
S3150800419842464B46FCF756FC00283FF4F3AEE9E7DF
S315080041A84FF0000A1AE751EC100B1946D4E71C49D8
S315080041B80020FFF730BB00200021FFF72CBB304654
S315080041C83946FFF728BB0492FFF77ABB0023FFF7A7
S315080041D864BB00BFAFF3008000000000432EE63F33
S315080041E8EF39FAFE422EE63F396CA80C615C20BE10
S315080041F8D0A4BE726937663EF16BD2C541BDBB3ED7
S315080042082CDE25AF6A56113F93BDBE166CC1663FB4
S315080042183E5555555555C53F0000E03FFFFF0F0071
S315080042280000F03FFFCB904000346F3FFE822B65BD
S315080042384715973C2DE9F04155EC104B554EAE43C2
S3150800424810EE100A10EE103A2A46294610D110EE3A
S31508004258102A2B46FCF770F902460B4620462946D3
S31508004268FBF7B4FF04460D4645EC104BBDE8F08154
S31508004278002D10DC25F000463043F5D05DB110EE70
S31508004288102A2B4610EE100AFBF79EFF02460B462D
S31508004298FCF77CFAE6E7121574D0D407C1F31301C4
S315080042A8A2F2FF3741F480115EBFDA0F5B0002EB1A
S315080042B841010024DA0F02EB41017F105B00162545
S315080042C820464FF4001286188E42DEBF891BB018A6
S315080042D8A4184900013D01EBD3714FEA52024FEA8F
S315080042E84303F0D12A464FF0200E4FF0004681428C
S315080042F806EB050C02DC13D19C4511D8BCF1000F5E
S315080043080CEB060543DA002D41DB00F10108091A12
S315080043189C4588BF01F1FF31A3EB0C0332444046A4
S315080043284FEAD37CBEF1010E0CEB41014FEA430379
S315080043384FEA5606DBD10B4306D0501C13BF013291
S315080043480134724622F0010263105208E10703F1AC
S315080043587F5303F5001348BF42F0004203EB0755A5
S31508004368144681E7D90A15385B050029FAD0CD0223
S315080043780AD5C2F1200423FA04F4551E93402143B2
S31508004388421B8AE71046F0E749000132EFE7804604
S31508004398BDE700BF0000F07F70B504460D46164617
S315080043A8FFF732F929460660204670BD37B5144628
S315080043B81D4608B103F10043CDE90023DDE90023D2
S315080043C820462946FCF7B8F8222203B0BDE8304053
S315080043D8FFF7E2BF08B500224FF08053FFF7E6FF64
S315080043E841EC100B08BD08B500224FF0E043FFF773
S315080043F8DDFF41EC100B08BD51EC100B10EE102A2E
S3150800440821F0004343EC102B704782B08DED000B6A
S31508004418019840F0004000F58010C00F02B07047C0
S3150800442870B555EC104BC5F30A5206462B469AB991
S3150800443825F00043234336D0394B294610EE100A97
S315080044480022FCF779F8374B9E4204460D4610DAE7
S315080044582BA3D3E900233AE040F2FF718A420CD134
S3150800446810EE102A20462946FBF7B0FE04460D46EC
S3150800447819E0C1F30A520B46363A324440F2FE7145
S315080044888A4208DD002D20A1D1E900011CDA20A105
S31508004498D1E9000118E0002A08DD23F0FF4323F4D8
S315080044A8E00343EA025545EC104B70BD12F1350F8F
S315080044B819DA4CF250339E4205F000430ADD12A180
S315080044C8D1E90001002BE2D10FA3D3E90023FCF7B9
S315080044D833F8CBE70AA1D1E90001002BB8D00EA121
S315080044E8D1E90001B4E723F0FF43363223F4E003A9
S315080044F843EA025120460C4B0022E8E7AFF3008056
S3150800450859F3F8C21F6EA5019C7500883CE4377EEE
S315080045189C7500883CE437FE59F3F8C21F6EA581DE
S3150800452800005043B03CFFFF0000903CF8B500BFC0
S31508004538F8BC08BC9E467047F8B500BFF8BC08BC6E
S309080045489E467047C6
S315080045500000000000000000010203040607080925
S31508004560000000000000F03F000000000000F83FD7
S3150800457000000000000000000000004003B8E23F11
S31508004580000000000000000006D0CF43EBFD4C3EC3
S30D0800459070C6FF7F0100000060
S30908004598AD0100085B
S3090800459C890100087B
S315080045A00024F400100000000100000010000020A4
S315080045B000000000000000000000000000000000ED
S315080045C000000000000000000000000000000000DD
S315080045D000000000000000000000000000000000CD
S315080045E000000000000000000000000000000000BD
S315080045F000000000000000000000000000000000AD
S31508004600000000000000000000000000000000009C
S70508001D399C
